{
  "contractName": "EthWallet",
  "abi": [
    {
      "inputs": [
        {
          "internalType": "uint64",
          "name": "_lockTime",
          "type": "uint64"
        }
      ],
      "stateMutability": "nonpayable",
      "type": "constructor"
    },
    {
      "anonymous": false,
      "inputs": [
        {
          "indexed": true,
          "internalType": "address",
          "name": "previousOwner",
          "type": "address"
        },
        {
          "indexed": true,
          "internalType": "address",
          "name": "newOwner",
          "type": "address"
        }
      ],
      "name": "OwnershipTransferred",
      "type": "event"
    },
    {
      "anonymous": false,
      "inputs": [
        {
          "indexed": false,
          "internalType": "address",
          "name": "",
          "type": "address"
        },
        {
          "indexed": false,
          "internalType": "uint256",
          "name": "",
          "type": "uint256"
        }
      ],
      "name": "ReceivedAndLocked",
      "type": "event"
    },
    {
      "anonymous": false,
      "inputs": [
        {
          "indexed": false,
          "internalType": "uint256",
          "name": "",
          "type": "uint256"
        }
      ],
      "name": "Unlocked",
      "type": "event"
    },
    {
      "inputs": [],
      "name": "freeWei",
      "outputs": [
        {
          "internalType": "uint256",
          "name": "",
          "type": "uint256"
        }
      ],
      "stateMutability": "view",
      "type": "function"
    },
    {
      "inputs": [],
      "name": "nextFreeTime",
      "outputs": [
        {
          "internalType": "uint256",
          "name": "",
          "type": "uint256"
        }
      ],
      "stateMutability": "view",
      "type": "function"
    },
    {
      "inputs": [],
      "name": "owner",
      "outputs": [
        {
          "internalType": "address",
          "name": "",
          "type": "address"
        }
      ],
      "stateMutability": "view",
      "type": "function"
    },
    {
      "inputs": [],
      "name": "renounceOwnership",
      "outputs": [],
      "stateMutability": "nonpayable",
      "type": "function"
    },
    {
      "inputs": [
        {
          "internalType": "address",
          "name": "newOwner",
          "type": "address"
        }
      ],
      "name": "transferOwnership",
      "outputs": [],
      "stateMutability": "nonpayable",
      "type": "function"
    },
    {
      "inputs": [
        {
          "internalType": "uint256",
          "name": "",
          "type": "uint256"
        }
      ],
      "name": "unlockMoments",
      "outputs": [
        {
          "internalType": "uint256",
          "name": "idx",
          "type": "uint256"
        },
        {
          "internalType": "uint256",
          "name": "amount",
          "type": "uint256"
        }
      ],
      "stateMutability": "view",
      "type": "function"
    },
    {
      "stateMutability": "payable",
      "type": "receive"
    },
    {
      "inputs": [
        {
          "internalType": "address payable",
          "name": "_addr",
          "type": "address"
        },
        {
          "internalType": "uint64",
          "name": "value",
          "type": "uint64"
        }
      ],
      "name": "send",
      "outputs": [],
      "stateMutability": "nonpayable",
      "type": "function"
    },
    {
      "inputs": [],
      "name": "getBalance",
      "outputs": [
        {
          "internalType": "uint256",
          "name": "",
          "type": "uint256"
        }
      ],
      "stateMutability": "view",
      "type": "function"
    }
  ],
  "bytecode": "0x60806040523480156200001157600080fd5b506040516200101838038062001018833981810160405281019062000037919062000185565b620000576200004b6200006f60201b60201c565b6200007760201b60201c565b8067ffffffffffffffff1660028190555050620001b7565b600033905090565b60008060009054906101000a900473ffffffffffffffffffffffffffffffffffffffff169050816000806101000a81548173ffffffffffffffffffffffffffffffffffffffff021916908373ffffffffffffffffffffffffffffffffffffffff1602179055508173ffffffffffffffffffffffffffffffffffffffff168173ffffffffffffffffffffffffffffffffffffffff167f8be0079c531659141344cd1fd0a4f28419497f9722a3daafe3b4186f6b6457e060405160405180910390a35050565b600080fd5b600067ffffffffffffffff82169050919050565b6200015f8162000140565b81146200016b57600080fd5b50565b6000815190506200017f8162000154565b92915050565b6000602082840312156200019e576200019d6200013b565b5b6000620001ae848285016200016e565b91505092915050565b610e5180620001c76000396000f3fe60806040526004361061007f5760003560e01c8063887d46a31161004e578063887d46a3146102775780638da5cb5b146102b55780638ef91764146102e0578063f2fde38b1461030b576101dc565b80630ae26619146101e157806312065fe01461020c57806344a07d7014610237578063715018a614610260576101dc565b366101dc5761008c610334565b73ffffffffffffffffffffffffffffffffffffffff166100aa61033c565b73ffffffffffffffffffffffffffffffffffffffff1614610100576040517f08c379a00000000000000000000000000000000000000000000000000000000081526004016100f790610923565b60405180910390fd5b610108610365565b7ff209259a27c49a3e3f9599e486c92c1209671d5891236f6680df91d215d43f82333460405161013992919061099d565b60405180910390a160006002544261015191906109f5565b905060035481101561016557806003819055505b60018190806001815401808255809150506001900390600052602060002001600090919091909150556040518060400160405280600180805490506101aa9190610a4b565b815260200134815250600460008381526020019081526020016000206000820151816000015560208201518160010155005b600080fd5b3480156101ed57600080fd5b506101f66104b5565b6040516102039190610a7f565b60405180910390f35b34801561021857600080fd5b506102216104bb565b60405161022e9190610a7f565b60405180910390f35b34801561024357600080fd5b5061025e60048036038101906102599190610b1d565b6104c3565b005b34801561026c57600080fd5b50610275610659565b005b34801561028357600080fd5b5061029e60048036038101906102999190610b89565b6106e1565b6040516102ac929190610bb6565b60405180910390f35b3480156102c157600080fd5b506102ca61033c565b6040516102d79190610bdf565b60405180910390f35b3480156102ec57600080fd5b506102f5610705565b6040516103029190610a7f565b60405180910390f35b34801561031757600080fd5b50610332600480360381019061032d9190610c26565b61070b565b005b600033905090565b60008060009054906101000a900473ffffffffffffffffffffffffffffffffffffffff16905090565b6003544210156104b3576000600460006003548152602001908152602001600020604051806040016040529081600082015481526020016001820154815250509050600460006003548152602001908152602001600020600080820160009055600182016000905550508060200151600560008282546103e591906109f5565b9250508190555060018080549050111561044e57600180808054905061040b9190610a4b565b8154811061041c5761041b610c53565b5b9060005260206000200154600182600001518154811061043f5761043e610c53565b5b90600052602060002001819055505b60018054806104605761045f610c82565b5b600190038181906000526020600020016000905590557ff27b6ce5b2f5e68ddb2fd95a8a909d4ecf1daaac270935fff052feacb24f184281602001516040516104a99190610a7f565b60405180910390a1505b565b60055481565b600047905090565b6104cb610334565b73ffffffffffffffffffffffffffffffffffffffff166104e961033c565b73ffffffffffffffffffffffffffffffffffffffff161461053f576040517f08c379a000000000000000000000000000000000000000000000000000000000815260040161053690610923565b60405180910390fd5b610547610365565b8067ffffffffffffffff1660055410610595576040517f08c379a000000000000000000000000000000000000000000000000000000000815260040161058c90610cfd565b60405180910390fd5b8067ffffffffffffffff1647116105e1576040517f08c379a00000000000000000000000000000000000000000000000000000000081526004016105d890610d69565b60405180910390fd5b8067ffffffffffffffff16600560008282546105fd9190610a4b565b925050819055508173ffffffffffffffffffffffffffffffffffffffff166108fc8267ffffffffffffffff169081150290604051600060405180830381858888f19350505050158015610654573d6000803e3d6000fd5b505050565b610661610334565b73ffffffffffffffffffffffffffffffffffffffff1661067f61033c565b73ffffffffffffffffffffffffffffffffffffffff16146106d5576040517f08c379a00000000000000000000000000000000000000000000000000000000081526004016106cc90610923565b60405180910390fd5b6106df6000610802565b565b60046020528060005260406000206000915090508060000154908060010154905082565b60035481565b610713610334565b73ffffffffffffffffffffffffffffffffffffffff1661073161033c565b73ffffffffffffffffffffffffffffffffffffffff1614610787576040517f08c379a000000000000000000000000000000000000000000000000000000000815260040161077e90610923565b60405180910390fd5b600073ffffffffffffffffffffffffffffffffffffffff168173ffffffffffffffffffffffffffffffffffffffff16036107f6576040517f08c379a00000000000000000000000000000000000000000000000000000000081526004016107ed90610dfb565b60405180910390fd5b6107ff81610802565b50565b60008060009054906101000a900473ffffffffffffffffffffffffffffffffffffffff169050816000806101000a81548173ffffffffffffffffffffffffffffffffffffffff021916908373ffffffffffffffffffffffffffffffffffffffff1602179055508173ffffffffffffffffffffffffffffffffffffffff168173ffffffffffffffffffffffffffffffffffffffff167f8be0079c531659141344cd1fd0a4f28419497f9722a3daafe3b4186f6b6457e060405160405180910390a35050565b600082825260208201905092915050565b7f4f776e61626c653a2063616c6c6572206973206e6f7420746865206f776e6572600082015250565b600061090d6020836108c6565b9150610918826108d7565b602082019050919050565b6000602082019050818103600083015261093c81610900565b9050919050565b600073ffffffffffffffffffffffffffffffffffffffff82169050919050565b600061096e82610943565b9050919050565b61097e81610963565b82525050565b6000819050919050565b61099781610984565b82525050565b60006040820190506109b26000830185610975565b6109bf602083018461098e565b9392505050565b7f4e487b7100000000000000000000000000000000000000000000000000000000600052601160045260246000fd5b6000610a0082610984565b9150610a0b83610984565b9250827fffffffffffffffffffffffffffffffffffffffffffffffffffffffffffffffff03821115610a4057610a3f6109c6565b5b828201905092915050565b6000610a5682610984565b9150610a6183610984565b925082821015610a7457610a736109c6565b5b828203905092915050565b6000602082019050610a94600083018461098e565b92915050565b600080fd5b6000610aaa82610943565b9050919050565b610aba81610a9f565b8114610ac557600080fd5b50565b600081359050610ad781610ab1565b92915050565b600067ffffffffffffffff82169050919050565b610afa81610add565b8114610b0557600080fd5b50565b600081359050610b1781610af1565b92915050565b60008060408385031215610b3457610b33610a9a565b5b6000610b4285828601610ac8565b9250506020610b5385828601610b08565b9150509250929050565b610b6681610984565b8114610b7157600080fd5b50565b600081359050610b8381610b5d565b92915050565b600060208284031215610b9f57610b9e610a9a565b5b6000610bad84828501610b74565b91505092915050565b6000604082019050610bcb600083018561098e565b610bd8602083018461098e565b9392505050565b6000602082019050610bf46000830184610975565b92915050565b610c0381610963565b8114610c0e57600080fd5b50565b600081359050610c2081610bfa565b92915050565b600060208284031215610c3c57610c3b610a9a565b5b6000610c4a84828501610c11565b91505092915050565b7f4e487b7100000000000000000000000000000000000000000000000000000000600052603260045260246000fd5b7f4e487b7100000000000000000000000000000000000000000000000000000000600052603160045260246000fd5b7f6e6f7420656e6f75676820756e6c6f636b6564206d6f6e657900000000000000600082015250565b6000610ce76019836108c6565b9150610cf282610cb1565b602082019050919050565b60006020820190508181036000830152610d1681610cda565b9050919050565b7f696e73756666696369656e742066756e64730000000000000000000000000000600082015250565b6000610d536012836108c6565b9150610d5e82610d1d565b602082019050919050565b60006020820190508181036000830152610d8281610d46565b9050919050565b7f4f776e61626c653a206e6577206f776e657220697320746865207a65726f206160008201527f6464726573730000000000000000000000000000000000000000000000000000602082015250565b6000610de56026836108c6565b9150610df082610d89565b604082019050919050565b60006020820190508181036000830152610e1481610dd8565b905091905056fea26469706673582212208fdf72422aba30abda7280f46a7fbf93ad655c5ea55f57a1501c7341fb417b7664736f6c634300080d0033",
  "immutableReferences": {},
  "source": "// SPDX-License-Identifier: MIT\npragma solidity >=0.4.22 <0.9.0;\n\nimport \"@openzeppelin/contracts/access/Ownable.sol\";\n\ncontract EthWallet is Ownable {\n\n\n  uint[] freeTimes;\n  uint lockTime;\n  uint public nextFreeTime;\n\n  struct lockedMoney {\n    uint idx;\n    uint amount;\n  }\n\n  mapping(uint => lockedMoney) public unlockMoments;\n\n  uint public freeWei;\n\n  event ReceivedAndLocked(address, uint);\n  event Unlocked(uint);\n\n  constructor(uint64 _lockTime) {\n    lockTime = _lockTime;\n  }\n\n  receive() external payable onlyOwner {\n    unlockIfNeeds();\n    emit ReceivedAndLocked(msg.sender, msg.value);\n    uint256 n = block.timestamp + lockTime;\n    if (n < nextFreeTime) {\n      nextFreeTime = n;\n    }\n    freeTimes.push(n);\n    unlockMoments[n] = lockedMoney(freeTimes.length - 1, msg.value);\n  }\n\n  function send(address payable _addr, uint64 value) external onlyOwner {\n    unlockIfNeeds();\n    require(freeWei < value, \"not enough unlocked money\");\n    require(address(this).balance > value, 'insufficient funds');\n    freeWei -= value;\n    _addr.transfer(value);\n  }\n\n  function unlockIfNeeds() internal {\n    if (block.timestamp >= nextFreeTime) {\n      return;\n    }\n    lockedMoney memory u = unlockMoments[nextFreeTime];\n    delete unlockMoments[nextFreeTime];\n    freeWei += u.amount;\n\n    if (freeTimes.length > 1) {\n      freeTimes[u.idx] = freeTimes[freeTimes.length-1];\n    }\n    freeTimes.pop();\n    emit Unlocked(u.amount);\n  }\n\n  function getBalance() public view returns (uint) {\n    return address(this).balance;\n  }\n\n\n}\n",
  "sourcePath": "/home/sergey/Projects/solidity-eth-bch-projects/intermediate/1_time_lock_wallet/contracts/TimeLockWallet.sol",
  "compiler": {
    "name": "solc",
    "version": "0.8.13+commit.abaa5c0e.Emscripten.clang"
  },
  "schemaVersion": "3.4.7",
  "updatedAt": "2022-05-19T19:24:06.205Z",
  "devdoc": {
    "kind": "dev",
    "methods": {
      "owner()": {
        "details": "Returns the address of the current owner."
      },
      "renounceOwnership()": {
        "details": "Leaves the contract without owner. It will not be possible to call `onlyOwner` functions anymore. Can only be called by the current owner. NOTE: Renouncing ownership will leave the contract without an owner, thereby removing any functionality that is only available to the owner."
      },
      "transferOwnership(address)": {
        "details": "Transfers ownership of the contract to a new account (`newOwner`). Can only be called by the current owner."
      }
    },
    "version": 1
  },
  "userdoc": {
    "kind": "user",
    "methods": {},
    "version": 1
  }
}