{
  "contractName": "TimeLockWallet",
  "abi": [
    {
      "inputs": [
        {
          "internalType": "uint64",
          "name": "_lockTime",
          "type": "uint64"
        }
      ],
      "stateMutability": "nonpayable",
      "type": "constructor"
    },
    {
      "anonymous": false,
      "inputs": [
        {
          "indexed": true,
          "internalType": "address",
          "name": "previousOwner",
          "type": "address"
        },
        {
          "indexed": true,
          "internalType": "address",
          "name": "newOwner",
          "type": "address"
        }
      ],
      "name": "OwnershipTransferred",
      "type": "event"
    },
    {
      "anonymous": false,
      "inputs": [
        {
          "indexed": false,
          "internalType": "address",
          "name": "sender",
          "type": "address"
        },
        {
          "indexed": false,
          "internalType": "uint256",
          "name": "amount",
          "type": "uint256"
        }
      ],
      "name": "ReceivedAndLocked",
      "type": "event"
    },
    {
      "anonymous": false,
      "inputs": [
        {
          "indexed": false,
          "internalType": "uint256",
          "name": "",
          "type": "uint256"
        }
      ],
      "name": "Unlocked",
      "type": "event"
    },
    {
      "inputs": [],
      "name": "freeWei",
      "outputs": [
        {
          "internalType": "uint256",
          "name": "",
          "type": "uint256"
        }
      ],
      "stateMutability": "view",
      "type": "function",
      "constant": true
    },
    {
      "inputs": [],
      "name": "nextFreeTime",
      "outputs": [
        {
          "internalType": "uint256",
          "name": "",
          "type": "uint256"
        }
      ],
      "stateMutability": "view",
      "type": "function",
      "constant": true
    },
    {
      "inputs": [],
      "name": "owner",
      "outputs": [
        {
          "internalType": "address",
          "name": "",
          "type": "address"
        }
      ],
      "stateMutability": "view",
      "type": "function",
      "constant": true
    },
    {
      "inputs": [],
      "name": "renounceOwnership",
      "outputs": [],
      "stateMutability": "nonpayable",
      "type": "function"
    },
    {
      "inputs": [
        {
          "internalType": "address",
          "name": "newOwner",
          "type": "address"
        }
      ],
      "name": "transferOwnership",
      "outputs": [],
      "stateMutability": "nonpayable",
      "type": "function"
    },
    {
      "inputs": [
        {
          "internalType": "uint256",
          "name": "",
          "type": "uint256"
        }
      ],
      "name": "unlockMoments",
      "outputs": [
        {
          "internalType": "uint256",
          "name": "idx",
          "type": "uint256"
        },
        {
          "internalType": "uint256",
          "name": "amount",
          "type": "uint256"
        }
      ],
      "stateMutability": "view",
      "type": "function",
      "constant": true
    },
    {
      "stateMutability": "payable",
      "type": "receive",
      "payable": true
    },
    {
      "inputs": [
        {
          "internalType": "address payable",
          "name": "_addr",
          "type": "address"
        },
        {
          "internalType": "uint64",
          "name": "value",
          "type": "uint64"
        }
      ],
      "name": "send",
      "outputs": [],
      "stateMutability": "nonpayable",
      "type": "function"
    },
    {
      "inputs": [],
      "name": "getBalance",
      "outputs": [
        {
          "internalType": "uint256",
          "name": "",
          "type": "uint256"
        }
      ],
      "stateMutability": "view",
      "type": "function",
      "constant": true
    }
  ],
  "bytecode": "0x60806040523480156200001157600080fd5b506040516200107f3803806200107f833981810160405281019062000037919062000185565b620000576200004b6200006f60201b60201c565b6200007760201b60201c565b8067ffffffffffffffff1660028190555050620001b7565b600033905090565b60008060009054906101000a900473ffffffffffffffffffffffffffffffffffffffff169050816000806101000a81548173ffffffffffffffffffffffffffffffffffffffff021916908373ffffffffffffffffffffffffffffffffffffffff1602179055508173ffffffffffffffffffffffffffffffffffffffff168173ffffffffffffffffffffffffffffffffffffffff167f8be0079c531659141344cd1fd0a4f28419497f9722a3daafe3b4186f6b6457e060405160405180910390a35050565b600080fd5b600067ffffffffffffffff82169050919050565b6200015f8162000140565b81146200016b57600080fd5b50565b6000815190506200017f8162000154565b92915050565b6000602082840312156200019e576200019d6200013b565b5b6000620001ae848285016200016e565b91505092915050565b610eb880620001c76000396000f3fe60806040526004361061007f5760003560e01c8063887d46a31161004e578063887d46a3146101c35780638da5cb5b146102015780638ef917641461022c578063f2fde38b1461025757610128565b80630ae266191461012d57806312065fe01461015857806344a07d7014610183578063715018a6146101ac57610128565b366101285761008c610280565b7ff209259a27c49a3e3f9599e486c92c1209671d5891236f6680df91d215d43f8233346040516100bd929190610987565b60405180910390a16100cd6103d0565b73ffffffffffffffffffffffffffffffffffffffff163373ffffffffffffffffffffffffffffffffffffffff160361010c576101076103f9565b610126565b346005600082825461011e91906109df565b925050819055505b005b600080fd5b34801561013957600080fd5b50610142610514565b60405161014f9190610a35565b60405180910390f35b34801561016457600080fd5b5061016d61051a565b60405161017a9190610a35565b60405180910390f35b34801561018f57600080fd5b506101aa60048036038101906101a59190610ad3565b610522565b005b3480156101b857600080fd5b506101c16106b8565b005b3480156101cf57600080fd5b506101ea60048036038101906101e59190610b3f565b610740565b6040516101f8929190610b6c565b60405180910390f35b34801561020d57600080fd5b506102166103d0565b6040516102239190610b95565b60405180910390f35b34801561023857600080fd5b50610241610764565b60405161024e9190610a35565b60405180910390f35b34801561026357600080fd5b5061027e60048036038101906102799190610bdc565b61076a565b005b6003544210156103ce5760006004600060035481526020019081526020016000206040518060400160405290816000820154815260200160018201548152505090506004600060035481526020019081526020016000206000808201600090556001820160009055505080602001516005600082825461030091906109df565b925050819055506001808054905011156103695760018080805490506103269190610c09565b8154811061033757610336610c3d565b5b9060005260206000200154600182600001518154811061035a57610359610c3d565b5b90600052602060002001819055505b600180548061037b5761037a610c6c565b5b600190038181906000526020600020016000905590557ff27b6ce5b2f5e68ddb2fd95a8a909d4ecf1daaac270935fff052feacb24f184281602001516040516103c49190610a35565b60405180910390a1505b565b60008060009054906101000a900473ffffffffffffffffffffffffffffffffffffffff16905090565b610401610861565b73ffffffffffffffffffffffffffffffffffffffff1661041f6103d0565b73ffffffffffffffffffffffffffffffffffffffff1614610475576040517f08c379a000000000000000000000000000000000000000000000000000000000815260040161046c90610cf8565b60405180910390fd5b60006002544261048591906109df565b905060035481101561049957806003819055505b60018190806001815401808255809150506001900390600052602060002001600090919091909150556040518060400160405280600180805490506104de9190610c09565b81526020013481525060046000838152602001908152602001600020600082015181600001556020820151816001015590505050565b60055481565b600047905090565b61052a610861565b73ffffffffffffffffffffffffffffffffffffffff166105486103d0565b73ffffffffffffffffffffffffffffffffffffffff161461059e576040517f08c379a000000000000000000000000000000000000000000000000000000000815260040161059590610cf8565b60405180910390fd5b6105a6610280565b8067ffffffffffffffff16600554106105f4576040517f08c379a00000000000000000000000000000000000000000000000000000000081526004016105eb90610d64565b60405180910390fd5b8067ffffffffffffffff164711610640576040517f08c379a000000000000000000000000000000000000000000000000000000000815260040161063790610dd0565b60405180910390fd5b8067ffffffffffffffff166005600082825461065c9190610c09565b925050819055508173ffffffffffffffffffffffffffffffffffffffff166108fc8267ffffffffffffffff169081150290604051600060405180830381858888f193505050501580156106b3573d6000803e3d6000fd5b505050565b6106c0610861565b73ffffffffffffffffffffffffffffffffffffffff166106de6103d0565b73ffffffffffffffffffffffffffffffffffffffff1614610734576040517f08c379a000000000000000000000000000000000000000000000000000000000815260040161072b90610cf8565b60405180910390fd5b61073e6000610869565b565b60046020528060005260406000206000915090508060000154908060010154905082565b60035481565b610772610861565b73ffffffffffffffffffffffffffffffffffffffff166107906103d0565b73ffffffffffffffffffffffffffffffffffffffff16146107e6576040517f08c379a00000000000000000000000000000000000000000000000000000000081526004016107dd90610cf8565b60405180910390fd5b600073ffffffffffffffffffffffffffffffffffffffff168173ffffffffffffffffffffffffffffffffffffffff1603610855576040517f08c379a000000000000000000000000000000000000000000000000000000000815260040161084c90610e62565b60405180910390fd5b61085e81610869565b50565b600033905090565b60008060009054906101000a900473ffffffffffffffffffffffffffffffffffffffff169050816000806101000a81548173ffffffffffffffffffffffffffffffffffffffff021916908373ffffffffffffffffffffffffffffffffffffffff1602179055508173ffffffffffffffffffffffffffffffffffffffff168173ffffffffffffffffffffffffffffffffffffffff167f8be0079c531659141344cd1fd0a4f28419497f9722a3daafe3b4186f6b6457e060405160405180910390a35050565b600073ffffffffffffffffffffffffffffffffffffffff82169050919050565b60006109588261092d565b9050919050565b6109688161094d565b82525050565b6000819050919050565b6109818161096e565b82525050565b600060408201905061099c600083018561095f565b6109a96020830184610978565b9392505050565b7f4e487b7100000000000000000000000000000000000000000000000000000000600052601160045260246000fd5b60006109ea8261096e565b91506109f58361096e565b9250827fffffffffffffffffffffffffffffffffffffffffffffffffffffffffffffffff03821115610a2a57610a296109b0565b5b828201905092915050565b6000602082019050610a4a6000830184610978565b92915050565b600080fd5b6000610a608261092d565b9050919050565b610a7081610a55565b8114610a7b57600080fd5b50565b600081359050610a8d81610a67565b92915050565b600067ffffffffffffffff82169050919050565b610ab081610a93565b8114610abb57600080fd5b50565b600081359050610acd81610aa7565b92915050565b60008060408385031215610aea57610ae9610a50565b5b6000610af885828601610a7e565b9250506020610b0985828601610abe565b9150509250929050565b610b1c8161096e565b8114610b2757600080fd5b50565b600081359050610b3981610b13565b92915050565b600060208284031215610b5557610b54610a50565b5b6000610b6384828501610b2a565b91505092915050565b6000604082019050610b816000830185610978565b610b8e6020830184610978565b9392505050565b6000602082019050610baa600083018461095f565b92915050565b610bb98161094d565b8114610bc457600080fd5b50565b600081359050610bd681610bb0565b92915050565b600060208284031215610bf257610bf1610a50565b5b6000610c0084828501610bc7565b91505092915050565b6000610c148261096e565b9150610c1f8361096e565b925082821015610c3257610c316109b0565b5b828203905092915050565b7f4e487b7100000000000000000000000000000000000000000000000000000000600052603260045260246000fd5b7f4e487b7100000000000000000000000000000000000000000000000000000000600052603160045260246000fd5b600082825260208201905092915050565b7f4f776e61626c653a2063616c6c6572206973206e6f7420746865206f776e6572600082015250565b6000610ce2602083610c9b565b9150610ced82610cac565b602082019050919050565b60006020820190508181036000830152610d1181610cd5565b9050919050565b7f6e6f7420656e6f75676820756e6c6f636b6564206d6f6e657900000000000000600082015250565b6000610d4e601983610c9b565b9150610d5982610d18565b602082019050919050565b60006020820190508181036000830152610d7d81610d41565b9050919050565b7f696e73756666696369656e742066756e64730000000000000000000000000000600082015250565b6000610dba601283610c9b565b9150610dc582610d84565b602082019050919050565b60006020820190508181036000830152610de981610dad565b9050919050565b7f4f776e61626c653a206e6577206f776e657220697320746865207a65726f206160008201527f6464726573730000000000000000000000000000000000000000000000000000602082015250565b6000610e4c602683610c9b565b9150610e5782610df0565b604082019050919050565b60006020820190508181036000830152610e7b81610e3f565b905091905056fea26469706673582212207b43fd729b55aec4836631a4a60bded0bffc34a3120e4cb40a5bfc7aed530f4864736f6c634300080d0033",
  "immutableReferences": {},
  "source": "// SPDX-License-Identifier: MIT\npragma solidity >=0.4.22 <0.9.0;\n\nimport \"@openzeppelin/contracts/access/Ownable.sol\";\n\ncontract TimeLockWallet is Ownable {\n\n\n  uint[] freeTimes;\n  uint lockTime;\n  uint public nextFreeTime;\n\n  struct lockedMoney {\n    uint idx;\n    uint amount;\n  }\n\n  mapping(uint => lockedMoney) public unlockMoments;\n\n  uint public freeWei;\n\n  event ReceivedAndLocked(address sender, uint amount);\n  event Unlocked(uint);\n\n  constructor(uint64 _lockTime) {\n    lockTime = _lockTime;\n  }\n\n  receive() external payable {\n    unlockIfNeeds();\n    emit ReceivedAndLocked(msg.sender, msg.value);\n    if (msg.sender == owner()) {\n      lockReceived();\n    } else {\n      freeWei += msg.value;\n    }\n  }\n\n  function lockReceived() internal onlyOwner {\n    uint256 n = block.timestamp + lockTime;\n    if (n < nextFreeTime) {\n      nextFreeTime = n;\n    }\n    freeTimes.push(n);\n    unlockMoments[n] = lockedMoney(freeTimes.length - 1, msg.value);\n  }\n\n  function send(address payable _addr, uint64 value) external onlyOwner {\n    unlockIfNeeds();\n    require(freeWei < value, \"not enough unlocked money\");\n    require(address(this).balance > value, 'insufficient funds');\n    freeWei -= value;\n    _addr.transfer(value);\n  }\n\n  function unlockIfNeeds() internal {\n    if (block.timestamp >= nextFreeTime) {\n      return;\n    }\n    lockedMoney memory u = unlockMoments[nextFreeTime];\n    delete unlockMoments[nextFreeTime];\n    freeWei += u.amount;\n\n    if (freeTimes.length > 1) {\n      freeTimes[u.idx] = freeTimes[freeTimes.length-1];\n    }\n    freeTimes.pop();\n    emit Unlocked(u.amount);\n  }\n\n  function getBalance() public view returns (uint) {\n    return address(this).balance;\n  }\n\n\n}\n",
  "sourcePath": "/home/sergey/Projects/solidity-eth-bch-projects/intermediate/1_time_lock_wallet/contracts/TimeLockWallet.sol",
  "compiler": {
    "name": "solc",
    "version": "0.8.13+commit.abaa5c0e.Emscripten.clang"
  },
  "schemaVersion": "3.4.7",
  "updatedAt": "2022-05-28T19:12:51.151Z",
  "networkType": "ethereum",
  "devdoc": {
    "kind": "dev",
    "methods": {
      "owner()": {
        "details": "Returns the address of the current owner."
      },
      "renounceOwnership()": {
        "details": "Leaves the contract without owner. It will not be possible to call `onlyOwner` functions anymore. Can only be called by the current owner. NOTE: Renouncing ownership will leave the contract without an owner, thereby removing any functionality that is only available to the owner."
      },
      "transferOwnership(address)": {
        "details": "Transfers ownership of the contract to a new account (`newOwner`). Can only be called by the current owner."
      }
    },
    "version": 1
  },
  "userdoc": {
    "kind": "user",
    "methods": {},
    "version": 1
  }
}