{
  "contractName": "MultiSend",
  "abi": [
    {
      "anonymous": false,
      "inputs": [
        {
          "indexed": true,
          "internalType": "address",
          "name": "previousOwner",
          "type": "address"
        },
        {
          "indexed": true,
          "internalType": "address",
          "name": "newOwner",
          "type": "address"
        }
      ],
      "name": "OwnershipTransferred",
      "type": "event"
    },
    {
      "inputs": [
        {
          "internalType": "uint256",
          "name": "",
          "type": "uint256"
        }
      ],
      "name": "accounts",
      "outputs": [
        {
          "internalType": "address",
          "name": "",
          "type": "address"
        }
      ],
      "stateMutability": "view",
      "type": "function"
    },
    {
      "inputs": [],
      "name": "owner",
      "outputs": [
        {
          "internalType": "address",
          "name": "",
          "type": "address"
        }
      ],
      "stateMutability": "view",
      "type": "function"
    },
    {
      "inputs": [],
      "name": "renounceOwnership",
      "outputs": [],
      "stateMutability": "nonpayable",
      "type": "function"
    },
    {
      "inputs": [
        {
          "internalType": "address",
          "name": "newOwner",
          "type": "address"
        }
      ],
      "name": "transferOwnership",
      "outputs": [],
      "stateMutability": "nonpayable",
      "type": "function"
    },
    {
      "inputs": [],
      "name": "accountsAmount",
      "outputs": [
        {
          "internalType": "uint256",
          "name": "",
          "type": "uint256"
        }
      ],
      "stateMutability": "view",
      "type": "function"
    },
    {
      "inputs": [
        {
          "internalType": "address",
          "name": "_acc",
          "type": "address"
        }
      ],
      "name": "accountExists",
      "outputs": [
        {
          "internalType": "bool",
          "name": "",
          "type": "bool"
        }
      ],
      "stateMutability": "view",
      "type": "function"
    },
    {
      "inputs": [
        {
          "internalType": "address",
          "name": "_acc",
          "type": "address"
        }
      ],
      "name": "addAccount",
      "outputs": [],
      "stateMutability": "nonpayable",
      "type": "function"
    },
    {
      "inputs": [
        {
          "internalType": "address",
          "name": "_acc",
          "type": "address"
        }
      ],
      "name": "removeAccount",
      "outputs": [],
      "stateMutability": "nonpayable",
      "type": "function"
    },
    {
      "inputs": [],
      "name": "clearAccounts",
      "outputs": [],
      "stateMutability": "nonpayable",
      "type": "function"
    },
    {
      "inputs": [],
      "name": "send",
      "outputs": [],
      "stateMutability": "nonpayable",
      "type": "function"
    }
  ],
  "bytecode": "0x608060405234801561001057600080fd5b5061002d61002261003260201b60201c565b61003a60201b60201c565b6100fe565b600033905090565b60008060009054906101000a900473ffffffffffffffffffffffffffffffffffffffff169050816000806101000a81548173ffffffffffffffffffffffffffffffffffffffff021916908373ffffffffffffffffffffffffffffffffffffffff1602179055508173ffffffffffffffffffffffffffffffffffffffff168173ffffffffffffffffffffffffffffffffffffffff167f8be0079c531659141344cd1fd0a4f28419497f9722a3daafe3b4186f6b6457e060405160405180910390a35050565b61123c8061010d6000396000f3fe608060405234801561001057600080fd5b506004361061009e5760003560e01c8063b46300ec11610066578063b46300ec14610123578063c4740a951461012d578063e89b0e1e14610149578063f2a40db814610165578063f2fde38b146101955761009e565b8063202c98d0146100a3578063715018a6146100ad57806375cd51ed146100b75780638da5cb5b146100e75780639184b4a714610105575b600080fd5b6100ab6101b1565b005b6100b5610285565b005b6100d160048036038101906100cc9190610c93565b61030d565b6040516100de9190610cdb565b60405180910390f35b6100ef6103bb565b6040516100fc9190610d05565b60405180910390f35b61010d6103e4565b60405161011a9190610d39565b60405180910390f35b61012b6103f1565b005b61014760048036038101906101429190610c93565b61067f565b005b610163600480360381019061015e9190610c93565b6108c5565b005b61017f600480360381019061017a9190610d80565b6109f0565b60405161018c9190610d05565b60405180910390f35b6101af60048036038101906101aa9190610c93565b610a2f565b005b6101b9610b26565b73ffffffffffffffffffffffffffffffffffffffff166101d76103bb565b73ffffffffffffffffffffffffffffffffffffffff161461022d576040517f08c379a000000000000000000000000000000000000000000000000000000000815260040161022490610e0a565b60405180910390fd5b600060018054905011610275576040517f08c379a000000000000000000000000000000000000000000000000000000000815260040161026c90610e76565b60405180910390fd5b600160006102839190610bf2565b565b61028d610b26565b73ffffffffffffffffffffffffffffffffffffffff166102ab6103bb565b73ffffffffffffffffffffffffffffffffffffffff1614610301576040517f08c379a00000000000000000000000000000000000000000000000000000000081526004016102f890610e0a565b60405180910390fd5b61030b6000610b2e565b565b600080600090505b6001805490508110156103b0578273ffffffffffffffffffffffffffffffffffffffff166001828154811061034d5761034c610e96565b5b9060005260206000200160009054906101000a900473ffffffffffffffffffffffffffffffffffffffff1673ffffffffffffffffffffffffffffffffffffffff160361039d5760019150506103b6565b80806103a890610ef4565b915050610315565b50600090505b919050565b60008060009054906101000a900473ffffffffffffffffffffffffffffffffffffffff16905090565b6000600180549050905090565b6103f9610b26565b73ffffffffffffffffffffffffffffffffffffffff166104176103bb565b73ffffffffffffffffffffffffffffffffffffffff161461046d576040517f08c379a000000000000000000000000000000000000000000000000000000000815260040161046490610e0a565b60405180910390fd5b6000600180549050116104b5576040517f08c379a00000000000000000000000000000000000000000000000000000000081526004016104ac90610e76565b60405180910390fd5b6000479050600081116104fd576040517f08c379a00000000000000000000000000000000000000000000000000000000081526004016104f490610f88565b60405180910390fd5b6000600180549050826105109190610fd7565b90506000600180549050836105259190611008565b905060005b6001805490508110156105d55760006001828154811061054d5761054c610e96565b5b9060005260206000200160009054906101000a900473ffffffffffffffffffffffffffffffffffffffff1690508073ffffffffffffffffffffffffffffffffffffffff166108fc859081150290604051600060405180830381858888f193505050501580156105c0573d6000803e3d6000fd5b505080806105cd90610ef4565b91505061052a565b50600081111561067a57600060018080805490506105f39190611039565b8154811061060457610603610e96565b5b9060005260206000200160009054906101000a900473ffffffffffffffffffffffffffffffffffffffff1690508073ffffffffffffffffffffffffffffffffffffffff166108fc839081150290604051600060405180830381858888f19350505050158015610677573d6000803e3d6000fd5b50505b505050565b610687610b26565b73ffffffffffffffffffffffffffffffffffffffff166106a56103bb565b73ffffffffffffffffffffffffffffffffffffffff16146106fb576040517f08c379a00000000000000000000000000000000000000000000000000000000081526004016106f290610e0a565b60405180910390fd5b60005b600180549050811015610886578173ffffffffffffffffffffffffffffffffffffffff166001828154811061073657610735610e96565b5b9060005260206000200160009054906101000a900473ffffffffffffffffffffffffffffffffffffffff1673ffffffffffffffffffffffffffffffffffffffff160361087357600180808054905061078e9190611039565b8154811061079f5761079e610e96565b5b9060005260206000200160009054906101000a900473ffffffffffffffffffffffffffffffffffffffff16600182815481106107de576107dd610e96565b5b9060005260206000200160006101000a81548173ffffffffffffffffffffffffffffffffffffffff021916908373ffffffffffffffffffffffffffffffffffffffff16021790555060018054806108385761083761106d565b5b6001900381819060005260206000200160006101000a81549073ffffffffffffffffffffffffffffffffffffffff02191690559055506108c2565b808061087e90610ef4565b9150506106fe565b506040517f08c379a00000000000000000000000000000000000000000000000000000000081526004016108b9906110e8565b60405180910390fd5b50565b6108cd610b26565b73ffffffffffffffffffffffffffffffffffffffff166108eb6103bb565b73ffffffffffffffffffffffffffffffffffffffff1614610941576040517f08c379a000000000000000000000000000000000000000000000000000000000815260040161093890610e0a565b60405180910390fd5b61094a8161030d565b1561098a576040517f08c379a000000000000000000000000000000000000000000000000000000000815260040161098190611154565b60405180910390fd5b6001819080600181540180825580915050600190039060005260206000200160009091909190916101000a81548173ffffffffffffffffffffffffffffffffffffffff021916908373ffffffffffffffffffffffffffffffffffffffff16021790555050565b60018181548110610a0057600080fd5b906000526020600020016000915054906101000a900473ffffffffffffffffffffffffffffffffffffffff1681565b610a37610b26565b73ffffffffffffffffffffffffffffffffffffffff16610a556103bb565b73ffffffffffffffffffffffffffffffffffffffff1614610aab576040517f08c379a0000000000000000000000000000000000000000000000000000000008152600401610aa290610e0a565b60405180910390fd5b600073ffffffffffffffffffffffffffffffffffffffff168173ffffffffffffffffffffffffffffffffffffffff1603610b1a576040517f08c379a0000000000000000000000000000000000000000000000000000000008152600401610b11906111e6565b60405180910390fd5b610b2381610b2e565b50565b600033905090565b60008060009054906101000a900473ffffffffffffffffffffffffffffffffffffffff169050816000806101000a81548173ffffffffffffffffffffffffffffffffffffffff021916908373ffffffffffffffffffffffffffffffffffffffff1602179055508173ffffffffffffffffffffffffffffffffffffffff168173ffffffffffffffffffffffffffffffffffffffff167f8be0079c531659141344cd1fd0a4f28419497f9722a3daafe3b4186f6b6457e060405160405180910390a35050565b5080546000825590600052602060002090810190610c109190610c13565b50565b5b80821115610c2c576000816000905550600101610c14565b5090565b600080fd5b600073ffffffffffffffffffffffffffffffffffffffff82169050919050565b6000610c6082610c35565b9050919050565b610c7081610c55565b8114610c7b57600080fd5b50565b600081359050610c8d81610c67565b92915050565b600060208284031215610ca957610ca8610c30565b5b6000610cb784828501610c7e565b91505092915050565b60008115159050919050565b610cd581610cc0565b82525050565b6000602082019050610cf06000830184610ccc565b92915050565b610cff81610c55565b82525050565b6000602082019050610d1a6000830184610cf6565b92915050565b6000819050919050565b610d3381610d20565b82525050565b6000602082019050610d4e6000830184610d2a565b92915050565b610d5d81610d20565b8114610d6857600080fd5b50565b600081359050610d7a81610d54565b92915050565b600060208284031215610d9657610d95610c30565b5b6000610da484828501610d6b565b91505092915050565b600082825260208201905092915050565b7f4f776e61626c653a2063616c6c6572206973206e6f7420746865206f776e6572600082015250565b6000610df4602083610dad565b9150610dff82610dbe565b602082019050919050565b60006020820190508181036000830152610e2381610de7565b9050919050565b7f6163636f756e7473206e6f742073706563696669656400000000000000000000600082015250565b6000610e60601683610dad565b9150610e6b82610e2a565b602082019050919050565b60006020820190508181036000830152610e8f81610e53565b9050919050565b7f4e487b7100000000000000000000000000000000000000000000000000000000600052603260045260246000fd5b7f4e487b7100000000000000000000000000000000000000000000000000000000600052601160045260246000fd5b6000610eff82610d20565b91507fffffffffffffffffffffffffffffffffffffffffffffffffffffffffffffffff8203610f3157610f30610ec5565b5b600182019050919050565b7f636f6e74726163742062616c616e636520697320656d70747900000000000000600082015250565b6000610f72601983610dad565b9150610f7d82610f3c565b602082019050919050565b60006020820190508181036000830152610fa181610f65565b9050919050565b7f4e487b7100000000000000000000000000000000000000000000000000000000600052601260045260246000fd5b6000610fe282610d20565b9150610fed83610d20565b925082610ffd57610ffc610fa8565b5b828204905092915050565b600061101382610d20565b915061101e83610d20565b92508261102e5761102d610fa8565b5b828206905092915050565b600061104482610d20565b915061104f83610d20565b92508282101561106257611061610ec5565b5b828203905092915050565b7f4e487b7100000000000000000000000000000000000000000000000000000000600052603160045260246000fd5b7f6163636f756e7420646f6573206e6f7420657869737400000000000000000000600082015250565b60006110d2601683610dad565b91506110dd8261109c565b602082019050919050565b60006020820190508181036000830152611101816110c5565b9050919050565b7f6163636f756e7420616c72656164792065786973747300000000000000000000600082015250565b600061113e601683610dad565b915061114982611108565b602082019050919050565b6000602082019050818103600083015261116d81611131565b9050919050565b7f4f776e61626c653a206e6577206f776e657220697320746865207a65726f206160008201527f6464726573730000000000000000000000000000000000000000000000000000602082015250565b60006111d0602683610dad565b91506111db82611174565b604082019050919050565b600060208201905081810360008301526111ff816111c3565b905091905056fea2646970667358221220044b4e54ddf144576b28fb6ca27a01baf3471100537da8ac7599463bd7b28e1964736f6c634300080d0033",
  "immutableReferences": {},
  "source": "// SPDX-License-Identifier: MIT\npragma solidity >=0.7.0 <0.9.0;\n\nimport \"@openzeppelin/contracts/access/Ownable.sol\";\n\ncontract MultiSend is Ownable {\n  address[] public accounts;\n\n  modifier withAccounts() {\n    require(accounts.length > 0, \"accounts not specified\");\n    _;\n  }\n\n  function accountsAmount() public view returns (uint) {\n    return accounts.length;\n  }\n\n  function accountExists(address _acc) public view returns (bool) {\n    for (uint i = 0; i < accounts.length; i++) {\n      if (accounts[i] == _acc) {\n        return true;\n      }\n    }\n    return false;\n  }\n\n  function addAccount(address _acc) public onlyOwner {\n    if (accountExists(_acc)) {\n        revert(\"account already exists\");\n    }\n    accounts.push(_acc);\n  }\n\n  function removeAccount(address _acc) public onlyOwner {\n\n    for (uint i = 0; i < accounts.length; i++) {\n      if (accounts[i] == _acc) {\n        accounts[i] = accounts[accounts.length-1];\n        accounts.pop();\n        return;\n      }\n    }\n    revert(\"account does not exist\");\n  }\n\n  function clearAccounts() public onlyOwner withAccounts {\n\n    delete accounts;\n  }\n\n  function send() public onlyOwner withAccounts {\n    uint _e = address(this).balance;\n    require(_e > 0, \"contract balance is empty\");\n    uint each = _e / accounts.length;\n    uint remain = _e % accounts.length;\n    for (uint i = 0; i < accounts.length; i++) {\n      address payable receiver = payable(accounts[i]);\n      receiver.transfer(each);\n    }\n    if (remain > 0) {\n      address payable r = payable(accounts[accounts.length - 1]);\n      r.transfer(remain);\n    }\n  }\n}\n",
  "sourcePath": "/home/sergey/Projects/solidity-eth-bch-projects/begginer/3_multi_send/contracts/MultiSend.sol",
  "compiler": {
    "name": "solc",
    "version": "0.8.13+commit.abaa5c0e.Emscripten.clang"
  },
  "schemaVersion": "3.4.7",
  "updatedAt": "2022-05-11T18:49:27.697Z",
  "devdoc": {
    "kind": "dev",
    "methods": {
      "owner()": {
        "details": "Returns the address of the current owner."
      },
      "renounceOwnership()": {
        "details": "Leaves the contract without owner. It will not be possible to call `onlyOwner` functions anymore. Can only be called by the current owner. NOTE: Renouncing ownership will leave the contract without an owner, thereby removing any functionality that is only available to the owner."
      },
      "transferOwnership(address)": {
        "details": "Transfers ownership of the contract to a new account (`newOwner`). Can only be called by the current owner."
      }
    },
    "version": 1
  },
  "userdoc": {
    "kind": "user",
    "methods": {},
    "version": 1
  }
}