{
  "contractName": "PollingSystem",
  "abi": [
    {
      "inputs": [
        {
          "internalType": "string[]",
          "name": "_choices",
          "type": "string[]"
        },
        {
          "internalType": "uint256",
          "name": "_votingPeriodSeconds",
          "type": "uint256"
        }
      ],
      "stateMutability": "nonpayable",
      "type": "constructor"
    },
    {
      "anonymous": false,
      "inputs": [
        {
          "indexed": false,
          "internalType": "string[]",
          "name": "winners",
          "type": "string[]"
        }
      ],
      "name": "VotingFinished",
      "type": "event"
    },
    {
      "inputs": [],
      "name": "votingFinished",
      "outputs": [
        {
          "internalType": "bool",
          "name": "",
          "type": "bool"
        }
      ],
      "stateMutability": "view",
      "type": "function"
    },
    {
      "inputs": [
        {
          "internalType": "string",
          "name": "_choice",
          "type": "string"
        }
      ],
      "name": "vote",
      "outputs": [],
      "stateMutability": "nonpayable",
      "type": "function"
    },
    {
      "inputs": [],
      "name": "finishVoting",
      "outputs": [],
      "stateMutability": "nonpayable",
      "type": "function"
    }
  ],
  "bytecode": "0x60806040523480156200001157600080fd5b50604051620014d3380380620014d38339818101604052810190620000379190620005b4565b6002825110156200007f576040517f08c379a000000000000000000000000000000000000000000000000000000000815260040162000076906200067b565b60405180910390fd5b80426200008d9190620006cc565b6002819055508160019080519060200190620000ab9291906200015b565b5060005b82518110156200015257604051806040016040528060011515815260200160008152506000848381518110620000ea57620000e962000729565b5b6020026020010151604051620001019190620007a5565b908152602001604051809103902060008201518160000160006101000a81548160ff0219169083151502179055506020820151816001015590505080806200014990620007be565b915050620000af565b5050506200086f565b828054828255906000526020600020908101928215620001af579160200282015b82811115620001ae5782518290805190602001906200019d929190620001c2565b50916020019190600101906200017c565b5b509050620001be919062000253565b5090565b828054620001d0906200083a565b90600052602060002090601f016020900481019282620001f4576000855562000240565b82601f106200020f57805160ff191683800117855562000240565b8280016001018555821562000240579182015b828111156200023f57825182559160200191906001019062000222565b5b5090506200024f91906200027b565b5090565b5b808211156200027757600081816200026d91906200029a565b5060010162000254565b5090565b5b80821115620002965760008160009055506001016200027c565b5090565b508054620002a8906200083a565b6000825580601f10620002bc5750620002dd565b601f016020900490600052602060002090810190620002dc91906200027b565b5b50565b6000604051905090565b600080fd5b600080fd5b600080fd5b6000601f19601f8301169050919050565b7f4e487b7100000000000000000000000000000000000000000000000000000000600052604160045260246000fd5b6200034482620002f9565b810181811067ffffffffffffffff821117156200036657620003656200030a565b5b80604052505050565b60006200037b620002e0565b905062000389828262000339565b919050565b600067ffffffffffffffff821115620003ac57620003ab6200030a565b5b602082029050602081019050919050565b600080fd5b600080fd5b600067ffffffffffffffff821115620003e557620003e46200030a565b5b620003f082620002f9565b9050602081019050919050565b60005b838110156200041d57808201518184015260208101905062000400565b838111156200042d576000848401525b50505050565b60006200044a6200044484620003c7565b6200036f565b905082815260208101848484011115620004695762000468620003c2565b5b62000476848285620003fd565b509392505050565b600082601f830112620004965762000495620002f4565b5b8151620004a884826020860162000433565b91505092915050565b6000620004c8620004c2846200038e565b6200036f565b90508083825260208201905060208402830185811115620004ee57620004ed620003bd565b5b835b818110156200053c57805167ffffffffffffffff811115620005175762000516620002f4565b5b8086016200052689826200047e565b85526020850194505050602081019050620004f0565b5050509392505050565b600082601f8301126200055e576200055d620002f4565b5b815162000570848260208601620004b1565b91505092915050565b6000819050919050565b6200058e8162000579565b81146200059a57600080fd5b50565b600081519050620005ae8162000583565b92915050565b60008060408385031215620005ce57620005cd620002ea565b5b600083015167ffffffffffffffff811115620005ef57620005ee620002ef565b5b620005fd8582860162000546565b925050602062000610858286016200059d565b9150509250929050565b600082825260208201905092915050565b7f6e656564206174206c656173742032206f7074696f6e73000000000000000000600082015250565b6000620006636017836200061a565b915062000670826200062b565b602082019050919050565b60006020820190508181036000830152620006968162000654565b9050919050565b7f4e487b7100000000000000000000000000000000000000000000000000000000600052601160045260246000fd5b6000620006d98262000579565b9150620006e68362000579565b9250827fffffffffffffffffffffffffffffffffffffffffffffffffffffffffffffffff038211156200071e576200071d6200069d565b5b828201905092915050565b7f4e487b7100000000000000000000000000000000000000000000000000000000600052603260045260246000fd5b600081519050919050565b600081905092915050565b60006200077b8262000758565b62000787818562000763565b935062000799818560208601620003fd565b80840191505092915050565b6000620007b382846200076e565b915081905092915050565b6000620007cb8262000579565b91507fffffffffffffffffffffffffffffffffffffffffffffffffffffffffffffffff82036200080057620007ff6200069d565b5b600182019050919050565b7f4e487b7100000000000000000000000000000000000000000000000000000000600052602260045260246000fd5b600060028204905060018216806200085357607f821691505b6020821081036200086957620008686200080b565b5b50919050565b610c54806200087f6000396000f3fe608060405234801561001057600080fd5b50600436106100415760003560e01c8063789d9e8a14610046578063f909430314610064578063fc36e15b1461006e575b600080fd5b61004e61008a565b60405161005b91906104b4565b60405180910390f35b61006c610097565b005b61008860048036038101906100839190610629565b610301565b005b6000600254421015905090565b61009f61008a565b6100de576040517f08c379a00000000000000000000000000000000000000000000000000000000081526004016100d5906106cf565b60405180910390fd5b6000805b6001805490508110156101c95760008060018381548110610106576101056106ef565b5b9060005260206000200160405161011d919061081d565b90815260200160405180910390206040518060400160405290816000820160009054906101000a900460ff16151515158152602001600182015481525050905080600001516101a1576040517f08c379a0000000000000000000000000000000000000000000000000000000008152600401610198906108a6565b60405180910390fd5b82816020015111156101b557806020015192505b5080806101c1906108ff565b9150506100e2565b5060005b6001805490508110156102c557600080600183815481106101f1576101f06106ef565b5b90600052602060002001604051610208919061081d565b90815260200160405180910390206040518060400160405290816000820160009054906101000a900460ff161515151581526020016001820154815250509050828160200151036102b157600460018381548110610269576102686106ef565b5b90600052602060002001908060018154018082558091505060019003906000526020600020016000909190919091509080546102a49061074d565b6102af9291906103ef565b505b5080806102bd906108ff565b9150506101cd565b507f1ce0ce8d024419f6388a401dfedd9b4babdf19ce3fdd4422e26c29e446a6d69b60046040516102f69190610a9e565b60405180910390a150565b61030961008a565b15610349576040517f08c379a000000000000000000000000000000000000000000000000000000000815260040161034090610b0c565b60405180910390fd5b6000808260405161035a9190610b9b565b908152602001604051809103902090508060000160009054906101000a900460ff166103bb576040517f08c379a00000000000000000000000000000000000000000000000000000000081526004016103b290610bfe565b60405180910390fd5b8060010160008154809291906103d0906108ff565b91905055506103dd61008a565b156103eb576103ea610097565b5b5050565b8280546103fb9061074d565b90600052602060002090601f01602090048101928261041d576000855561046b565b82601f1061042e578054855561046b565b8280016001018555821561046b57600052602060002091601f016020900482015b8281111561046a57825482559160010191906001019061044f565b5b509050610478919061047c565b5090565b5b8082111561049557600081600090555060010161047d565b5090565b60008115159050919050565b6104ae81610499565b82525050565b60006020820190506104c960008301846104a5565b92915050565b6000604051905090565b600080fd5b600080fd5b600080fd5b600080fd5b6000601f19601f8301169050919050565b7f4e487b7100000000000000000000000000000000000000000000000000000000600052604160045260246000fd5b610536826104ed565b810181811067ffffffffffffffff82111715610555576105546104fe565b5b80604052505050565b60006105686104cf565b9050610574828261052d565b919050565b600067ffffffffffffffff821115610594576105936104fe565b5b61059d826104ed565b9050602081019050919050565b82818337600083830152505050565b60006105cc6105c784610579565b61055e565b9050828152602081018484840111156105e8576105e76104e8565b5b6105f38482856105aa565b509392505050565b600082601f8301126106105761060f6104e3565b5b81356106208482602086016105b9565b91505092915050565b60006020828403121561063f5761063e6104d9565b5b600082013567ffffffffffffffff81111561065d5761065c6104de565b5b610669848285016105fb565b91505092915050565b600082825260208201905092915050565b7f766f74696e67206e6f742066696e697368656400000000000000000000000000600082015250565b60006106b9601383610672565b91506106c482610683565b602082019050919050565b600060208201905081810360008301526106e8816106ac565b9050919050565b7f4e487b7100000000000000000000000000000000000000000000000000000000600052603260045260246000fd5b7f4e487b7100000000000000000000000000000000000000000000000000000000600052602260045260246000fd5b6000600282049050600182168061076557607f821691505b6020821081036107785761077761071e565b5b50919050565b600081905092915050565b60008190508160005260206000209050919050565b600081546107ab8161074d565b6107b5818661077e565b945060018216600081146107d057600181146107e157610814565b60ff19831686528186019350610814565b6107ea85610789565b60005b8381101561080c578154818901526001820191506020810190506107ed565b838801955050505b50505092915050565b6000610829828461079e565b915081905092915050565b7f696e7465726e616c206572726f723a20766f7465206973206e6f742076616c6960008201527f6400000000000000000000000000000000000000000000000000000000000000602082015250565b6000610890602183610672565b915061089b82610834565b604082019050919050565b600060208201905081810360008301526108bf81610883565b9050919050565b7f4e487b7100000000000000000000000000000000000000000000000000000000600052601160045260246000fd5b6000819050919050565b600061090a826108f5565b91507fffffffffffffffffffffffffffffffffffffffffffffffffffffffffffffffff820361093c5761093b6108c6565b5b600182019050919050565b600081549050919050565b600082825260208201905092915050565b60008190508160005260206000209050919050565b600082825260208201905092915050565b600081546109968161074d565b6109a08186610978565b945060018216600081146109bb57600181146109cd57610a00565b60ff1983168652602086019350610a00565b6109d685610789565b60005b838110156109f8578154818901526001820191506020810190506109d9565b808801955050505b50505092915050565b6000610a158383610989565b905092915050565b6000600182019050919050565b6000610a3582610947565b610a3f8185610952565b935083602082028501610a5185610963565b8060005b85811015610a8c57848403895281610a6d8582610a09565b9450610a7883610a1d565b925060208a01995050600181019050610a55565b50829750879550505050505092915050565b60006020820190508181036000830152610ab88184610a2a565b905092915050565b7f566f74696e672066696e69736865640000000000000000000000000000000000600082015250565b6000610af6600f83610672565b9150610b0182610ac0565b602082019050919050565b60006020820190508181036000830152610b2581610ae9565b9050919050565b600081519050919050565b60005b83811015610b55578082015181840152602081019050610b3a565b83811115610b64576000848401525b50505050565b6000610b7582610b2c565b610b7f818561077e565b9350610b8f818560208601610b37565b80840191505092915050565b6000610ba78284610b6a565b915081905092915050565b7f6e6f7420616c6c6f7765642063686f6963650000000000000000000000000000600082015250565b6000610be8601283610672565b9150610bf382610bb2565b602082019050919050565b60006020820190508181036000830152610c1781610bdb565b905091905056fea264697066735822122058af5d18bfc4e41fe75bbb37ee01573db71897b12621fc16422448010031be7764736f6c634300080d0033",
  "immutableReferences": {},
  "source": "// SPDX-License-Identifier: MIT\npragma solidity >=0.4.22 <0.9.0;\n\ncontract PollingSystem {\n  struct Vote {\n    bool isValid;\n    uint votes;\n  }\n  mapping(string => Vote) votes;\n  string[] choices;\n\n  uint finishTime;\n  string winner;\n\n  event VotingFinished(string[] winners);\n  string[] winners;\n\n  constructor(string[] memory _choices, uint _votingPeriodSeconds) {\n    require(_choices.length >= 2, \"need at least 2 options\");\n\n    finishTime = block.timestamp + _votingPeriodSeconds;\n    choices = _choices;\n    for (uint i = 0; i < _choices.length; i++) {\n      votes[_choices[i]] = Vote(true, 0);\n    }\n  }\n\n  modifier votingNotFinished() {\n    require(\n      !votingFinished(),\n      \"Voting finished\"\n    );\n    _;\n  }\n\n  function votingFinished() public view returns(bool) {\n    return block.timestamp >= finishTime;\n  }\n\n  function vote(string memory _choice) public votingNotFinished {\n    Vote storage v = votes[_choice];\n    require(v.isValid, \"not allowed choice\");\n    v.votes ++;\n\n    if (votingFinished()) {\n      finishVoting();\n    }\n  }\n\n  function finishVoting() public {\n    require(votingFinished(), \"voting not finished\");\n    uint max = 0;\n    for (uint i = 0; i < choices.length; i++) {\n      Vote memory vv = votes[choices[i]];\n      require(vv.isValid, \"internal error: vote is not valid\");\n      if (vv.votes > max) {\n        max = vv.votes;\n      }\n    }\n\n    for (uint i = 0; i < choices.length; i++) {\n      Vote memory vv = votes[choices[i]];\n      if (vv.votes == max) {\n        winners.push(choices[i]);\n      }\n    }\n\n    emit VotingFinished(winners);\n  }\n\n}\n",
  "sourcePath": "/home/sergey/Projects/solidity-eth-bch-projects/begginer/5_polling_system/contracts/PollingSystem.sol",
  "compiler": {
    "name": "solc",
    "version": "0.8.13+commit.abaa5c0e.Emscripten.clang"
  },
  "schemaVersion": "3.4.7",
  "updatedAt": "2022-05-17T18:35:36.273Z",
  "devdoc": {
    "kind": "dev",
    "methods": {},
    "version": 1
  },
  "userdoc": {
    "kind": "user",
    "methods": {},
    "version": 1
  }
}