{
  "contractName": "EthWallet",
  "abi": [
    {
      "anonymous": false,
      "inputs": [
        {
          "indexed": true,
          "internalType": "address",
          "name": "previousOwner",
          "type": "address"
        },
        {
          "indexed": true,
          "internalType": "address",
          "name": "newOwner",
          "type": "address"
        }
      ],
      "name": "OwnershipTransferred",
      "type": "event"
    },
    {
      "anonymous": false,
      "inputs": [
        {
          "indexed": false,
          "internalType": "address",
          "name": "",
          "type": "address"
        },
        {
          "indexed": false,
          "internalType": "uint256",
          "name": "",
          "type": "uint256"
        }
      ],
      "name": "Received",
      "type": "event"
    },
    {
      "inputs": [],
      "name": "owner",
      "outputs": [
        {
          "internalType": "address",
          "name": "",
          "type": "address"
        }
      ],
      "stateMutability": "view",
      "type": "function"
    },
    {
      "inputs": [],
      "name": "renounceOwnership",
      "outputs": [],
      "stateMutability": "nonpayable",
      "type": "function"
    },
    {
      "inputs": [
        {
          "internalType": "address",
          "name": "newOwner",
          "type": "address"
        }
      ],
      "name": "transferOwnership",
      "outputs": [],
      "stateMutability": "nonpayable",
      "type": "function"
    },
    {
      "stateMutability": "payable",
      "type": "receive"
    },
    {
      "inputs": [
        {
          "internalType": "address payable",
          "name": "_addr",
          "type": "address"
        },
        {
          "internalType": "uint64",
          "name": "value",
          "type": "uint64"
        }
      ],
      "name": "send",
      "outputs": [],
      "stateMutability": "nonpayable",
      "type": "function"
    },
    {
      "inputs": [],
      "name": "getBalance",
      "outputs": [
        {
          "internalType": "uint256",
          "name": "",
          "type": "uint256"
        }
      ],
      "stateMutability": "view",
      "type": "function"
    }
  ],
  "bytecode": "0x608060405234801561001057600080fd5b5061002d61002261003260201b60201c565b61003a60201b60201c565b6100fe565b600033905090565b60008060009054906101000a900473ffffffffffffffffffffffffffffffffffffffff169050816000806101000a81548173ffffffffffffffffffffffffffffffffffffffff021916908373ffffffffffffffffffffffffffffffffffffffff1602179055508173ffffffffffffffffffffffffffffffffffffffff168173ffffffffffffffffffffffffffffffffffffffff167f8be0079c531659141344cd1fd0a4f28419497f9722a3daafe3b4186f6b6457e060405160405180910390a35050565b6108ed8061010d6000396000f3fe60806040526004361061004e5760003560e01c806312065fe01461010f57806344a07d701461013a578063715018a6146101635780638da5cb5b1461017a578063f2fde38b146101a55761010a565b3661010a5761005b6101ce565b73ffffffffffffffffffffffffffffffffffffffff166100796101d6565b73ffffffffffffffffffffffffffffffffffffffff16146100cf576040517f08c379a00000000000000000000000000000000000000000000000000000000081526004016100c6906105c4565b60405180910390fd5b7f88a5966d370b9919b20f3e2c13ff65706f196a4e32cc2c12bf57088f88525874333460405161010092919061063e565b60405180910390a1005b600080fd5b34801561011b57600080fd5b506101246101ff565b6040516101319190610667565b60405180910390f35b34801561014657600080fd5b50610161600480360381019061015c9190610705565b610207565b005b34801561016f57600080fd5b50610178610324565b005b34801561018657600080fd5b5061018f6101d6565b60405161019c9190610745565b60405180910390f35b3480156101b157600080fd5b506101cc60048036038101906101c7919061078c565b6103ac565b005b600033905090565b60008060009054906101000a900473ffffffffffffffffffffffffffffffffffffffff16905090565b600047905090565b61020f6101ce565b73ffffffffffffffffffffffffffffffffffffffff1661022d6101d6565b73ffffffffffffffffffffffffffffffffffffffff1614610283576040517f08c379a000000000000000000000000000000000000000000000000000000000815260040161027a906105c4565b60405180910390fd5b8067ffffffffffffffff1647116102cf576040517f08c379a00000000000000000000000000000000000000000000000000000000081526004016102c690610805565b60405180910390fd5b8173ffffffffffffffffffffffffffffffffffffffff166108fc8267ffffffffffffffff169081150290604051600060405180830381858888f1935050505015801561031f573d6000803e3d6000fd5b505050565b61032c6101ce565b73ffffffffffffffffffffffffffffffffffffffff1661034a6101d6565b73ffffffffffffffffffffffffffffffffffffffff16146103a0576040517f08c379a0000000000000000000000000000000000000000000000000000000008152600401610397906105c4565b60405180910390fd5b6103aa60006104a3565b565b6103b46101ce565b73ffffffffffffffffffffffffffffffffffffffff166103d26101d6565b73ffffffffffffffffffffffffffffffffffffffff1614610428576040517f08c379a000000000000000000000000000000000000000000000000000000000815260040161041f906105c4565b60405180910390fd5b600073ffffffffffffffffffffffffffffffffffffffff168173ffffffffffffffffffffffffffffffffffffffff1603610497576040517f08c379a000000000000000000000000000000000000000000000000000000000815260040161048e90610897565b60405180910390fd5b6104a0816104a3565b50565b60008060009054906101000a900473ffffffffffffffffffffffffffffffffffffffff169050816000806101000a81548173ffffffffffffffffffffffffffffffffffffffff021916908373ffffffffffffffffffffffffffffffffffffffff1602179055508173ffffffffffffffffffffffffffffffffffffffff168173ffffffffffffffffffffffffffffffffffffffff167f8be0079c531659141344cd1fd0a4f28419497f9722a3daafe3b4186f6b6457e060405160405180910390a35050565b600082825260208201905092915050565b7f4f776e61626c653a2063616c6c6572206973206e6f7420746865206f776e6572600082015250565b60006105ae602083610567565b91506105b982610578565b602082019050919050565b600060208201905081810360008301526105dd816105a1565b9050919050565b600073ffffffffffffffffffffffffffffffffffffffff82169050919050565b600061060f826105e4565b9050919050565b61061f81610604565b82525050565b6000819050919050565b61063881610625565b82525050565b60006040820190506106536000830185610616565b610660602083018461062f565b9392505050565b600060208201905061067c600083018461062f565b92915050565b600080fd5b6000610692826105e4565b9050919050565b6106a281610687565b81146106ad57600080fd5b50565b6000813590506106bf81610699565b92915050565b600067ffffffffffffffff82169050919050565b6106e2816106c5565b81146106ed57600080fd5b50565b6000813590506106ff816106d9565b92915050565b6000806040838503121561071c5761071b610682565b5b600061072a858286016106b0565b925050602061073b858286016106f0565b9150509250929050565b600060208201905061075a6000830184610616565b92915050565b61076981610604565b811461077457600080fd5b50565b60008135905061078681610760565b92915050565b6000602082840312156107a2576107a1610682565b5b60006107b084828501610777565b91505092915050565b7f696e73756666696369656e742066756e64730000000000000000000000000000600082015250565b60006107ef601283610567565b91506107fa826107b9565b602082019050919050565b6000602082019050818103600083015261081e816107e2565b9050919050565b7f4f776e61626c653a206e6577206f776e657220697320746865207a65726f206160008201527f6464726573730000000000000000000000000000000000000000000000000000602082015250565b6000610881602683610567565b915061088c82610825565b604082019050919050565b600060208201905081810360008301526108b081610874565b905091905056fea26469706673582212203de2fea8d80e221f7c1a4ef2a79281b47bb10f740102bdce3f54ae957b282fd464736f6c634300080d0033",
  "immutableReferences": {},
  "source": "// SPDX-License-Identifier: MIT\npragma solidity >=0.4.22 <0.9.0;\n\nimport \"@openzeppelin/contracts/access/Ownable.sol\";\n\ncontract EthWallet is Ownable {\n  event Received(address, uint);\n\n  receive() external payable onlyOwner {\n    emit Received(msg.sender, msg.value);\n  }\n\n  function send(address payable _addr, uint64 value) external onlyOwner {\n    require(address(this).balance > value, 'insufficient funds');\n    _addr.transfer(value);\n  }\n\n  function getBalance() public view returns (uint) {\n    return address(this).balance;\n  }\n\n\n}\n",
  "sourcePath": "/home/sergey/Projects/solidity-eth-bch-projects/begginer/4_ether_wallet/contracts/EthWallet.sol",
  "compiler": {
    "name": "solc",
    "version": "0.8.13+commit.abaa5c0e.Emscripten.clang"
  },
  "schemaVersion": "3.4.7",
  "updatedAt": "2022-05-15T19:00:02.284Z",
  "devdoc": {
    "kind": "dev",
    "methods": {
      "owner()": {
        "details": "Returns the address of the current owner."
      },
      "renounceOwnership()": {
        "details": "Leaves the contract without owner. It will not be possible to call `onlyOwner` functions anymore. Can only be called by the current owner. NOTE: Renouncing ownership will leave the contract without an owner, thereby removing any functionality that is only available to the owner."
      },
      "transferOwnership(address)": {
        "details": "Transfers ownership of the contract to a new account (`newOwner`). Can only be called by the current owner."
      }
    },
    "version": 1
  },
  "userdoc": {
    "kind": "user",
    "methods": {},
    "version": 1
  }
}